:020000040000FA
:040000000DEF00F010
:040008002CEF1BF0CE
:06001800FF00BBEF1BF02E
:102000000053746172742075702064656C61792E60
:1020100020426567696E2077616974696E67206622
:102020006F7220722F632070756C736573206F6EF2
:1020300020696E7075742070696E2E200D0A00493B
:102040006E7075742070756C7365203D202564205A
:1020500048616C6C20636F756E746572203D20253D
:1020600064204572726F72207369676E616C3D20E7
:102070002564200D0A00446174612077696C6C202E
:102080006265207072696E74656420616674657241
:102090002070756C7365732061726520726563656D
:1020A000697665642E200D0A00001250800B1B6EAD
:1020B00012501224216E11AE60EF10F062EF10F09A
:1020C00063EF10F021802150D8B469EF10F06BEF6E
:1020D00010F07EEF10F02128D8A471EF10F073EF0C
:1020E00010F07BEF10F0000E0F6E000E106E000E61
:1020F000116E000E126E118E86EF10F0000E0F6E34
:10210000000E106E000E116E000E126E1650800B37
:102110001B1A16501624206E15AE91EF10F093EF97
:1021200010F094EF10F020802050D8B49AEF10F007
:102130009CEF10F0AFEF10F02028D8A4A2EF10F021
:10214000A4EF10F0ACEF10F0000E136E000E146E42
:10215000000E156E000E166E158EB7EF10F0000E05
:10216000136E000E146E000E156E000E166E2050CB
:10217000D8B4BDEF10F0BFEF10F0C7EF10F0215052
:10218000D8A4C5EF10F0C7EF10F0D1EF10F0000E9B
:102190000F6E000E106E000E116E000E126E7BEFB1
:1021A00012F015500F026F00CCFF26F06F00D0FF29
:1021B00027F026501C6E1D6A1E6A1F6A2750226E69
:1021C000236A246A256A145010026F00CCFF26F09F
:1021D0006F00D0FF27F026501C26000E1D221E2265
:1021E0001F2227502226000E2322242225221350AC
:1021F00011026F00CCFF26F06F00D0FF27F02650B1
:102200001C26000E1D221E221F2227502226000EF1
:102210002322242225221EC01FF01DC01EF01CC038
:102220001DF01C6A135010026F00CCFF26F06F00E7
:10223000D0FF27F026501C2627501D22000E1E22FC
:10224000000E1F2214500F026F00CCFF26F06F000B
:10225000D0FF27F026501C2627501D22000E1E22DC
:10226000000E1F221EC01FF01DC01EF01CC01DF05E
:102270001C6A13500F026F00CCFF26F06F00D0FFD6
:1022800027F026501C2627501D22000E1E22000E6D
:102290001F22155010026F00CCFF26F06F00D0FFF8
:1022A00027F02650222627502322000E2422000E3B
:1022B0002522145011026F00CCFF26F06F00D0FFD2
:1022C00027F02650222627502322000E2422000E1B
:1022D0002522155011026F00CCFF26F06F00D0FFB1
:1022E00027F02650176E2750186E196A1A6A19C0FF
:1022F0001AF018C019F017C018F0176A17502226E4
:1023000018502322195024221A5025221CC017F0DD
:102310001DC018F01EC019F01FC01AF0190E96EF5C
:1023200011F0D8901A32193218321732E82E91EF84
:1023300011F01750222618502322195024221A5027
:1023400025221EC01FF01DC01EF01CC01DF01C6AFF
:10235000205021C017F0186A1726000E1822820E8E
:102360001724266EFF0E1820276ECCEF11F0D890A0
:1023700022362336243625361FAEC1EF11F0C3EFC7
:1023800011F0C4EF11F02280D8901C361D361E3695
:102390001F362606D8A0270624AED1EF11F0D3EFC2
:1023A00011F0B7EF11F0000E206E1FAEDAEF11F052
:1023B000DCEF11F000EF12F0FF0E1C14176EFF0E91
:1023C0001D14186EFF0E1E14196E7F0E1F141A6E48
:1023D0001750181019101A10D8B4F1EF11F0F3EFCC
:1023E00011F0F7EF11F0010E206E00EF12F022A0B5
:1023F000FCEF11F0FEEF11F000EF12F0F3EF11F02F
:102400002050D8B406EF12F008EF12F02CEF12F0C3
:10241000010E2226000E23222422252225A013EFBE
:1024200012F015EF12F02CEF12F022C017F023C0BB
:1024300018F024C019F025C01AF01A341A321932D3
:102440001832173217C022F018C023F019C024F038
:102450001AC025F0264A272A27BE37EF12F0275048
:1024600008E12628D8A037EF12F039EF12F043EF39
:1024700012F0000E226E000E236E800E246E7F0E70
:10248000256E71EF12F027BE50EF12F0275006E1D3
:102490002604D8B04EEF12F050EF12F05CEF12F0BD
:1024A000000E226E000E236E000E246E000E256EAE
:1024B000000E1B6E71EF12F026C021F0FF0E2216E7
:1024C000FF0E23167F0E2416000E251621A06BEF9B
:1024D00012F06DEF12F06EEF12F0248ED8902130D2
:1024E000256E1B50251222C00FF023C010F024C00F
:1024F00011F025C012F012005EEC1CF08E0E016E81
:10250000390E026E000E036EE4EC1CF0D28E520EF9
:102510005C6E2A0EE82EFED75C2EFCD7BA80BA92EB
:10252000BA84BE94A50E0001C06F200EC16F4BECA3
:102530001CF0010E0001C06F200EC16F4BEC1CF0AF
:10254000760E0001C06F200EC16F4BEC1CF0C0EF87
:1025500012F0170E5D6E320E5C6EC00EE82EFED7C6
:102560005C2EFCD75D2EFAD700D0EFEF12F0520EA2
:102570005C6E2A0EE82EFED75C2EFCD7EFEF12F031
:102580008AC05CF08BC05DF05D50000AD8B4CBEF20
:1025900012F0EFEF12F05C50000AD8B4A9EF12F07D
:1025A000010AD8B4B7EF12F0030AD8B4B7EF12F0AB
:1025B000EFEF12F0000E00017F6F000E7E6F09EF4B
:1025C00013F0000E00017F6F320E7E6F09EF13F0E3
:1025D000000E00017F6F050E7E6F09EF13F08AC0B9
:1025E0005CF08BC05DF05D50000AD8B4FAEF12F0D9
:1025F00009EF13F05C50000AD8B4DAEF12F0010AC8
:10260000D8B4E1EF12F0030AD8B4E8EF12F009EF02
:1026100013F03F0118510001B86F3F01195100013B
:10262000B96F3F011A510001BA6FBB6B3F011551E1
:102630000001646F3F0116510001656F3F011751A2
:102640000001666F676B3F0112510001606F3F012F
:1026500013510001616F3F0114510001626F636B00
:102660007CC07EF07DC07FF0000E816F000E806F19
:10267000CDEF13F0000E136E000E146E900E156E5B
:10268000400E166E570EB825016EFF0EB921026E70
:10269000FF0EBA21036EFF0EBB21046E000E1EEC6E
:1026A00017F001C00FF002C010F003C011F004C019
:1026B00012F055EC10F00FC028F010C029F011C036
:1026C0002AF012C02BF06EEC19F028C086F029C059
:1026D00087F0EEEF13F0000E136E000E146E900EE6
:1026E000156E400E166E570EB825016EFF0EB921FD
:1026F000026EFF0EBA21036EFF0EBB21046E000EA8
:102700001EEC17F001C00FF002C010F003C011F072
:1027100004C012F055EC10F00FC028F010C029F0E2
:1027200011C02AF012C02BF06EEC19F028C086F010
:1027300029C087F0EEEF13F0000E136E000E146E3A
:10274000900E156E400E166E570EB825016EFF0ED8
:10275000B921026EFF0EBA21036EFF0EBB21046E7B
:10276000000E1EEC17F001C00FF002C010F003C005
:1027700011F004C012F055EC10F00FC028F010C09A
:1027800029F011C02AF012C02BF06EEC19F028C00D
:1027900086F029C087F0EEEF13F08AC05CF08BC0A2
:1027A0005DF05D50000AD8B4D8EF13F0EEEF13F0EF
:1027B0005C50000AD8B43AEF13F0010AD8B46BEFBA
:1027C00013F0030AD8B49CEF13F0EEEF13F0000EF1
:1027D00000017F6F320E7E6F1DEF14F08AC05CF037
:1027E0008BC05DF05D50000AD8B4F9EF13F01DEF17
:1027F00014F05C50000AD8B41DEF14F0010AD8B4EC
:10280000E7EF13F0030AD8B41DEF14F01DEF14F036
:10281000000E0001896F050E886F37EF14F0000E6F
:102820000001896F1E0E886F37EF14F0000E000153
:10283000896F020E886F37EF14F08AC05CF08BC08E
:102840005DF05D50000AD8B428EF14F037EF14F0B3
:102850005C50000AD8B408EF14F0010AD8B40FEFA6
:1028600014F0030AD8B416EF14F037EF14F0000197
:1028700086517E5D846F87517F59856F85BF45EF97
:1028800014F043EF14F049EF14F0BA90BA82BA840E
:10289000BE848851845D8551800A5C6E8951800AAE
:1028A0005C58D8B056EF14F058EF14F073EF14F0F2
:1028B00088C05CF089C05DF05C1E5D1E5C4A5D2ACC
:1028C00084515C5C5D50800A5E6E8551800A5E5862
:1028D000D8B06DEF14F06FEF14F073EF14F0BA800E
:1028E000BA92BA94BE9485BF7EEF14F0855108E188
:1028F0008405D8A07EEF14F080EF14F084EF14F07C
:10290000BA80BA92BA84BE943F0EC06F200EC16FD7
:1029100086C0C2F087C0C3F07EC0C4F07FC0C5F0DF
:1029200084C0C6F085C0C7F04BEC1CF0210E5C6E75
:10293000760EE82EFED75C2EFCD700D009EF13F000
:102940000DEF00F020C038F021C039F022C03AF07D
:1029500023C03BF024C03CF025C03DF026C03EF033
:1029600027C03FF03FBEB7EF14F0BAEF14F0010EEE
:10297000BBEF14F0000E366E376A36503710D8B4FD
:10298000C4EF14F0C6EF14F0D6EF14F03F1E3E1E55
:102990003D1E3C1E3B1E3A1E391E386C000E39226D
:1029A0003A223B223C223D223E223F22000179BFB7
:1029B000DCEF14F0DEEF14F0DFEF14F07A9379BF60
:1029C000ECEF14F0795106E17805D8B0EAEF14F095
:1029D000ECEF14F0F2EF14F0000E336E010E326ED5
:1029E000F6EF14F078C032F079C033F076C034F0EE
:1029F00077C035F036503710D8A401EF15F003EF4B
:102A000015F00AEF15F07AA508EF15F00AEF15F0AA
:102A10000DEF15F03406D8A03506000E416E1F0EDE
:102A2000406E000EAB6F91EF15F04006D8A0410646
:102A30008C0E4024D96E000E4120DA6E38C001F0B1
:102A400039C002F03AC003F03BC004F03CC005F0CE
:102A50003DC006F03EC007F03FC008F00A0E096E08
:102A6000000E0A6E000E0B6E000E0C6E000E0D6E48
:102A7000000E0E6E000E0F6E000E106EBCEC18F005
:102A800001C028F002C029F003C02AF004C02BF0D6
:102A900005C02CF006C02DF007C02EF008C02FF0A6
:102AA00028C013F02AC014F0DCEC1BF01350300FD8
:102AB000DF6E3206D8A033063406D8A0350638C0FB
:102AC00001F039C002F03AC003F03BC004F03CC052
:102AD00005F03DC006F03EC007F03FC008F00A0E0A
:102AE000096E000E0A6E000E0B6E000E0C6E000ECC
:102AF0000D6E000E0E6E000E0F6E000E106EF8ECD6
:102B000017F001C038F002C039F003C03AF004C039
:102B10003BF005C03CF006C03DF007C03EF008C0E9
:102B20003FF041BE9CEF15F0415008E14004D8A0B1
:102B30009CEF15F09EEF15F0CFEF15F038503910DF
:102B40003A103B103C103D103E103F10D8A4ABEFA4
:102B500015F0ADEF15F015EF15F033BEBAEF15F027
:102B6000335006E13204D8B0B8EF15F0BAEF15F0E3
:102B700015EF15F035BEC5EF15F0355008E13404FA
:102B8000D8A0C5EF15F0C7EF15F0CFEF15F0000195
:102B90007AB3CDEF15F0CFEF15F015EF15F03650F5
:102BA0003710D8A4D6EF15F0D8EF15F0E0EF15F0F8
:102BB00000017AA5DEEF15F0E0EF15F0FFEF15F05C
:102BC0004006D8A0410636503710D8A4EAEF15F0D9
:102BD000ECEF15F0F2EF15F0000E316E2B0E306EAB
:102BE000F6EF15F0000E316E2D0E306E8C0E402477
:102BF000D96E000E4120DA6E6000C3F0DFFF1EC008
:102C000013F01FC014F08C0E4024156E000E4120EE
:102C1000166E34C017F035C018F0F1EC19F013C07F
:102C20001EF014C01FF01200600013F1D9FF600005
:102C300017F1DAFF6F007BFFF6FF6F0077FFF7FFFA
:102C4000000EF86E0800F550250AD8A42AEF16F0F9
:102C50002CEF16F0FAEF16F0600013F1D9FF6000C8
:102C600017F1DAFFDE2A000EDD22000E0001776F79
:102C7000000E766F76C07AF077C07BF0786979695C
:102C8000600013F1D9FF600017F1DAFF6F007BFFDE
:102C9000F6FF6F0077FFF7FF000EF86E0800F550A3
:102CA000640AD8B456EF16F058EF16F070EF16F02D
:102CB000600013F1D9FF600017F1DAFF6F007BFFAE
:102CC000F6FF6F0077FFF7FF000EF86E0800F55073
:102CD000690AD8A46EEF16F070EF16F0BAEF16F08E
:102CE000600013F1D9FF600017F1DAFFDE2A000E51
:102CF000DD2260001BF1D9FF60001FF1DAFF6F00D9
:102D00007CFF48F0020EDE266F007CFF49F0000ECB
:102D1000DD22600023F1D9FF600027F1DAFF6F00A8
:102D200078FF4AF06F0074FF4BF0000E4BBEFF0EB1
:102D30004C6E4D6E4E6E4F6E506E516E42C01EF018
:102D400043C01FF04AC020F04BC021F04CC022F01D
:102D50004DC023F04EC024F04FC025F050C026F0E7
:102D600051C027F0A2EC14F01EC042F01FC043F087
:102D70001DEF17F0600013F1D9FF600017F1DAFFC3
:102D80006F007BFFF6FF6F0077FFF7FF000EF86E16
:102D90000800F550250AD8A4D0EF16F0D2EF16F0AF
:102DA000EBEF16F0600013F1D9FF600017F1DAFFC6
:102DB000DE2A000EDD22000E046E250E036E42C0D8
:102DC00005F043C006F0A7EC1AF0000E436E010EAA
:102DD000426E1DEF17F0600013F1D9FF600017F18C
:102DE000DAFFDE2A000EDD22000E436E000E426E78
:102DF0001DEF17F0600013F1D9FF600017F1DAFF43
:102E00006F007BFFF6FF6F0077FFF7FF000EF86E95
:102E10000800F550036E046A42C005F043C006F096
:102E2000A7EC1AF0600013F1D9FF600017F1DAFF88
:102E3000DE2A000EDD22E5EF16F01200096E0950C1
:102E4000D8B425EF17F027EF17F049EF17F004BEBD
:102E50002EEF17F02CEF17F049EF17F001C005F037
:102E600002C006F003C007F004C008F0051E061EED
:102E7000071E081E052A000E06220722082205C08A
:102E80000BF006C00CF007C00DF008C00EF051EFBB
:102E900017F001C00BF002C00CF003C00DF004C02D
:102EA0000EF00150021003100410D8A45AEF17F0CE
:102EB0005CEF17F066EF17F0000E016E000E026E69
:102EC000000E036E000E046EF7EF17F0960E0A6EFA
:102ED00070EF17F00A2AD8900E320D320C320B32F6
:102EE000000E0B14056E000E0C14066E000E0D1471
:102EF000076EFE0E0E14086E05500610071008101F
:102F0000D8A485EF17F087EF17F06AEF17F095EF69
:102F100017F00A2A010E0B26000E0C220D220E229B
:102F2000D8900E320D320C320B32000E0B14056E9F
:102F3000000E0C14066E000E0D14076EFF0E0E141C
:102F4000086E0550061007100810D8A4AAEF17F055
:102F5000ACEF17F089EF17F0B4EF17F00A06D8902E
:102F60000B360C360D360E360DBEB9EF17F0BBEF33
:102F700017F0C3EF17F0020E0A60C1EF17F0C3EFAE
:102F800017F0AEEF17F00AB0C8EF17F0CAEF17F05E
:102F9000CBEF17F00D9ED8900A320AC005F0066AF2
:102FA000076A086A05C008F0076A066A056A0550DC
:102FB0000B1206500C1207500D1208500E12095039
:102FC000D8B4E5EF17F0E7EF17F0EFEF17F004BE16
:102FD000EEEF17F0ECEF17F0EFEF17F00E8E0BC0DF
:102FE00001F00CC002F00DC003F00EC004F012009E
:102FF000000E126E10BE01EF18F0FFEF17F013EF86
:1030000018F0101E0F1E0E1E0D1E0C1E0B1E0A1E8B
:10301000096C000E0A220B220C220D220E220F2216
:103020001022010E126E08BE1AEF18F018EF18F0F9
:103030002CEF18F0081E071E061E051E041E031E98
:10304000021E016C000E0222032204220522062227
:1030500007220822010E121A20EE13F0070EDE6A74
:10306000E806FDE209500A100B100C100D100E10AE
:103070000F101010D8B43FEF18F041EF18F093EF95
:1030800018F0010E116E4FEF18F0D89009360A367D
:103090000B360C360D360E360F361036112A10AEA2
:1030A00054EF18F056EF18F045EF18F0D89013369B
:1030B0001436153616361736183619361A3609509C
:1030C000015C0A5002580B5003580C5004580D5024
:1030D00005580E5006580F50075810500858D8A0E1
:1030E00074EF18F076EF18F087EF18F00950015ED2
:1030F0000A50025A0B50035A0C50045A0D50055AEC
:103100000E50065A0F50075A1050085A1380D89084
:1031100010320F320E320D320C320B320A320932BB
:10312000112E56EF18F01250D8B499EF18F09BEF0B
:1031300018F0ABEF18F01A1E191E181E171E161ED7
:10314000151E141E136C000E1422152216221722AF
:10315000182219221A2213C001F014C002F015C05F
:1031600003F016C004F017C005F018C006F019C02F
:1031700007F01AC008F01200000E126E08BEC5EF6C
:1031800018F0C3EF18F0D7EF18F0081E071E061E40
:10319000051E041E031E021E016C000E02220322E5
:1031A00004220522062207220822010E126E10BEFA
:1031B000DEEF18F0DCEF18F0EEEF18F0101E0F1E27
:1031C0000E1E0D1E0C1E0B1E0A1E096C000E0A227E
:1031D0000B220C220D220E220F22102209500A105F
:1031E0000B100C100D100E100F101010D8B4FBEFB8
:1031F00018F0FDEF18F045EF19F0010E116E0BEF0E
:1032000019F0D89009360A360B360C360D360E36C4
:103210000F361036112A10AE10EF19F012EF19F018
:1032200001EF19F00950015C0A5002580B50035885
:103230000C5004580D5005580E5006580F500758A2
:1032400010500858D8A027EF19F029EF19F039EFDE
:1032500019F00950015E0A50025A0B50035A0C50E3
:10326000045A0D50055A0E50065A0F50075A105066
:10327000085AD89010320F320E320D320C320B3207
:103280000A320932112E12EF19F01250D8B44BEF56
:1032900019F04DEF19F05DEF19F0081E071E061E1C
:1032A000051E041E031E021E016C000E02220322D4
:1032B0000422052206220722082201C001F002C0D2
:1032C00002F003C003F004C004F005C005F006C01E
:1032D00006F007C007F008C008F012002A342B34AB
:1032E000316E3150D8A477EF19F079EF19F083EFF0
:1032F00019F0000E286E000E296E000E2A6E000EC8
:103300002B6EF0EF19F028C02CF029C02DF02AC048
:103310002EF02BC02FF0200E93EF19F0D8902F3203
:103320002E322D322C32E82E8EEF19F02C50306ECA
:103330002A8EFF0E2816FF0E2916FF0E2A16000EE3
:103340002B16960E315E31BEAAEF19F0A8EF19F0D8
:10335000C0EF19F03150800A970FD8B0B2EF19F0D2
:10336000B4EF19F0B6EF19F079EF19F0D8902B32CD
:103370002A3229322832313EB6EF19F0D8EF19F04F
:103380001F0E3164C6EF19F0C8EF19F0D0EF19F035
:1033900079EF19F0D890283629362A362B3631069F
:1033A0003150D8A4D6EF19F0D8EF19F0CAEF19F0C0
:1033B0003050D8B4DEEF19F0E0EF19F0E8EF19F073
:1033C0002B1E2A1E291E286C000E29222A222B229F
:1033D00028C028F029C029F02AC02AF02BC02BF0E1
:1033E000120000017AA1F7EF19F0F9EF19F003EFDD
:1033F0001AF015C00CF016C00DF013C00EF014C07A
:103400000FF099EC1BF018BE08EF1AF00AEF1AF053
:1034100010EF1AF017C01CF018C01DF014EF1AF0CE
:10342000000E1D6E000E1C6E000E1B6E000E1A6E3E
:1034300026EF1AF0000E046E200E036E13C005F086
:1034400014C006F0A7EC1AF01A4A1B2A1C501A5C8A
:103450001B50800A196E1D50800A1958D8A033EFEE
:103460001AF035EF1AF01AEF1AF000017AB13BEFBB
:103470001AF03DEF1AF047EF1AF015C00CF016C025
:103480000DF013C00EF014C00FF099EC1BF015C036
:1034900001F016C002F0FCEC1BF01C500124136E6E
:1034A0001D500220146E1200040EBE6E000EBD6E82
:1034B000070EBA6E000EBB6E000EBC6E030EC66E1B
:1034C000F80EC26EFB0EC36EC468C5683A0170691F
:1034D000FC0E606FF20E506F030E806FF80E406F9F
:1034E000000E716F000E816F000E516F000E416F64
:1034F000000E616F000E5A6F000E5B6F000E6A6F58
:10350000000E6B6F000E7A6F000E7B6F000E826FE5
:10351000000E426F000E526F000E626F000E726F4F
:103520004369536963697369070E836F446954691A
:10353000646974690F0E846F080EC06F100ED16F2E
:10354000130E0A6F110ED26F0B0EE56F12000550AD
:103550000610D8B4AEEF1AF0B0EF1AF0B9EF1AF0C7
:1035600005500610D8A4B7EF1AF0B9EF1AF0BEEF65
:103570001AF00350EBEC1CF0F1EF1AF020EE04F01F
:103580000550D9260650DA22DE50DE10D8B4CBEF33
:103590001AF0CDEF1AF0E8EF1AF020EE04F0055023
:1035A000D9260650DA2210EE02F00550E126065028
:1035B000E222DE50E65CE650800A0B6EDE50800AA6
:1035C0000B58D8B0E6EF1AF0E8EF1AF0F1EF1AF066
:1035D00020EE02F00550D9260650DA22DE2A000E2F
:1035E000DD221200000E3D01EC6F000EED6F000EAB
:1035F000EE6F000EEF6F000EF06F000EF16FB00E69
:10360000F26F800EF36F000EF46F0C0EF56F000E6C
:10361000F66F000EF76F000EF86F000EF96F000ED8
:10362000FA6F000E016E000E026E000E036ED6ECF5
:103630001CF0000E016E000E026E000E036ECFEC49
:103640001CF0000E016E000E026E000E036EDDEC2B
:103650001CF0000E5F6E1200390191AF32EF1BF0CB
:1036600034EF1BF03FEF1BF0A1AF39EF1BF03BEF46
:103670001BF03FEF1BF0F9EC1CF063EF1BF091AD7A
:1036800044EF1BF046EF1BF051EF1BF0A1AD4BEFE9
:103690001BF04DEF1BF051EF1BF0FCEC1CF063EF47
:1036A0001BF091A156EF1BF058EF1BF063EF1BF0DE
:1036B000A1A15DEF1BF05FEF1BF063EF1BF0F0ECDF
:1036C0001CF063EF1BF0110054C058F055C059F0C6
:1036D000000E0001756F000E746F82EF1BF052C078
:1036E00042F053C043F0580E446E000E456E56C073
:1036F00046F057C047F014EC16F042500001742712
:1037000043507523600063F1F6FF600067F1F7FF37
:10371000000EF86E0800F5500009D8A492EF1BF0D7
:1037200094EF1BF06FEF1BF074C052F075C053F0B4
:103730001200000E126E000E116EAAEF1BF010C0E8
:1037400003F0046A0EC005F00FC006F0A7EC1AF0F3
:10375000114A122A11500C24D96E12500D20DA6E23
:10376000DF50106E1050D8A4B8EF1BF0BAEF1BF06A
:103770009FEF1BF01200EA0EF66E390EF76E000E88
:10378000F86E00EEB8F010EE08F009006F00D7FFF9
:10379000EEFFE550E150F9E100EE60F04C0EEE6A0C
:1037A000E806FDE15F6A080ED56E000ED66E000ECB
:1037B000D76E00017CEF12F014BEE9EF1BF014503D
:1037C00006E11304D8B0E7EF1BF0E9EF1BF0F7EFC9
:1037D0001BF013C015F014C016F0151E161E154A66
:1037E000162A15C013F016C014F0FBEF1BF013C01F
:1037F00013F014C014F0120001C003F002C004F072
:1038000004EF1CF0014A022A600007F0D9FF6000B3
:103810000BF0DAFFDF50D8A410EF1CF012EF1CF011
:1038200002EF1CF00350015C016E04500258026E5E
:103830001200800E3F011E6F420E1F6F000E206FA0
:10384000000E216F000E236F000E226F000E1D6F01
:10385000000E1C6F000E1B6F3901918F918D3F017F
:103860001F8F12000001AC51AD11AE11D8B43BEF67
:103870001CF03DEF1CF04AEF1CF002D84AEF1CF0A0
:103880000500FA6EAC51FD6EAD51FE6EAE51FF6E8D
:10389000FA5012001200C20E5A6E000E5B6E000E3D
:1038A000526E000E536EC0C054F0C1C055F05A0E97
:1038B000566E000E576E64EC1BF01200FFEC1CF00D
:1038C00071EC1CF054EC1AF0BBEC1CF092EC1CF008
:1038D00019EC1CF083EC1CF0A0EC1CF0F2EC1AF0DC
:1038E0001200000E3901C06F000EC16F000EC26FD2
:1038F000000EC36F000EC46F000EC56F000EC66FC2
:10390000000EC76F1200010EAE6E000EAD6E000EFF
:10391000AF6E000EAB6E000EAA6E3901A495F30EC9
:10392000AC6E1200010EA26E000EA16E000EA36E10
:103930009F68000E9E6E3901A791B00EA06E120016
:103940003901A191D280020E016E3A0E026E000E74
:10395000036EE4EC1CF0390191811200016E390113
:10396000A3A9B5EF1CF0B7EF1CF0AFEF1CF060009F
:1039700007F0EAFD1200640E3901D96F000EDB6F0B
:10398000000EDD6F030EDF6F000EDE6F1200010E02
:1039900000017C257C6F000E7D217D6F120001C02F
:1039A000B2F002C0B3F003C0B4F0120001C0B5F031
:1039B00002C0B6F003C0B7F0120001C0AFF002C001
:1039C000B0F003C0B1F0120001C0ACF002C0ADF025
:1039D00003C0AEF01200026E0250AEEC1CF01200FA
:1039E0003901A19132EC1CF012000300000001002B
:1039F0000F003901A19F12003901A19D1200D29A36
:043A0000120012009E
:020000040020DA
:10000000FF0FFF0FFF0FFF0FFF0FFF0FFF0FFF0F80
:020000040030CA
:0A000000ECFFF7FF9FFFFFFFFFFF7B
:00000001FF
