:020000040000FA
:040000000DEF00F010
:040008006BEF1BF08F
:06001800FF00FAEF1BF0EF
:1020000000496E7075742070756C7365203D256491
:1020100020202048616C6C20636F756E746572209F
:102020003D25642020204572726F72207369676EAF
:10203000616C3D25642020205265766572736520B1
:102040003D2564200D0A0053746172742075702060
:1020500064656C61792E20426567696E20776169DD
:1020600074696E6720666F7220722F632070756CC2
:10207000736573206F6E20696E7075742070696E61
:102080002E200D0A00446174612077696C6C206217
:1020900065207072696E7465642061667465722073
:1020A00070756C7365732061726520726563656914
:0920B0007665642E200D0A000083
:1020BA00B3EC1CF0140E016E390E026E000E036EA4
:1020CA0031EC1DF0D28E520E5C6E2A0EE82EFED72F
:1020DA005C2EFCD7BA90BA82BA84BE94B40E0001C0
:1020EA009E6F200E9F6FA0EC1CF0470E00019E6FA2
:1020FA00200E9F6FA0EC1CF0850E00019E6F200E33
:10210A009F6FA0EC1CF0F1EF10F0000E0001A96F18
:10211A00000EA86F110E5C6E3A0EE82EFED75C2EEA
:10212A00FCD700D0BE84110E5C6E3A0EE82EFED7A4
:10213A005C2EFCD700D0BE940001A84BA92BA9BFE6
:10214A00B0EF10F0A95109E1060EA85DD8A0B0EFD2
:10215A0010F0B2EF10F08FEF10F0170E5D6E320E26
:10216A005C6EC00EE82EFED75C2EFCD75D2EFAD729
:10217A0000D0000E0001AB6F000EAA6F110E5C6E4C
:10218A003A0EE82EFED75C2EFCD700D0BE84110E84
:10219A005C6E3A0EE82EFED75C2EFCD700D0BE94B9
:1021AA000001AA4BAB2BABBFE4EF10F0AB5109E136
:1021BA00060EAA5DD8A0E4EF10F0E6EF10F0C3EF28
:1021CA0010F020EF11F0520E5C6E2A0EE82EFED7A8
:1021DA005C2EFCD720EF11F07CC05CF07DC05DF076
:1021EA005D50000AD8B4FCEF10F020EF11F05C50FB
:1021FA00000AD8B48AEF10F0010AD8B4E8EF10F058
:10220A00030AD8B4E8EF10F020EF11F0000E000135
:10221A00756F000E746F3AEF11F0000E0001756FC2
:10222A00320E746F3AEF11F0000E0001756F050E51
:10223A00746F3AEF11F07CC05CF07DC05DF05D50C8
:10224A00000AD8B42BEF11F03AEF11F05C50000AF3
:10225A00D8B40BEF11F0010AD8B412EF11F0030A47
:10226A00D8B419EF11F03AEF11F03F0118510001FB
:10227A00B86F3F0119510001B96F3F011A510001AE
:10228A00BA6FBB6B3F0115510001646F3F011651D4
:10229A000001656F3F0117510001666F676B3F01CF
:1022AA0012510001606F3F0113510001616F3F013C
:1022BA0014510001626F636BD4EF11F0B8C05CF087
:1022CA00B9C05DF0D8905C365D36D40E5C24786F68
:1022DA00FE0E5D20796FF5EF11F0000E136E000E01
:1022EA00146E900E156E400E166E570EB825016EBE
:1022FA00FF0EB921026EFF0EBA21036EFF0EBB213B
:10230A00046E000E5DEC17F001C00FF002C010F071
:10231A0003C011F004C012F0BAEC12F00FC028F09A
:10232A0010C029F011C02AF012C02BF0ADEC19F040
:10233A0028C078F029C079F0F5EF11F0000E136E7D
:10234A00000E146E900E156E400E166E570EB825BE
:10235A00016EFF0EB921026EFF0EBA21036EFF0E47
:10236A00BB21046E000E5DEC17F001C00FF002C035
:10237A0010F003C011F004C012F0BAEC12F00FC052
:10238A0028F010C029F011C02AF012C02BF0ADECD1
:10239A0019F028C078F029C079F0F5EF11F07CC067
:1023AA005CF07DC05DF05D50000AD8B4DFEF11F03B
:1023BA00F5EF11F05C50000AD8B463EF11F0010A8E
:1023CA00D8B472EF11F0030AD8B4A3EF11F0F5EF05
:1023DA0011F0000E0001756F320E746F24EF12F0C7
:1023EA007CC05CF07DC05DF05D50000AD8B400EF9F
:1023FA0012F024EF12F05C50000AD8B424EF12F065
:10240A00010AD8B4EEEF11F0030AD8B424EF12F09F
:10241A0024EF12F0000E00017B6F050E7A6F3EEF7B
:10242A0012F0000E00017B6F1E0E7A6F3EEF12F063
:10243A00000E00017B6F020E7A6F3EEF12F07CC035
:10244A005CF07DC05DF05D50000AD8B42FEF12F049
:10245A003EEF12F05C50000AD8B40FEF12F0010AF6
:10246A00D8B416EF12F0030AD8B41DEF12F03EEFFB
:10247A0012F000017851745D766F79517559776F52
:10248A0077BF4CEF12F04AEF12F053EF12F0BA8016
:10249A00BA92BA84000EBF6F010EBE6F7A51765D92
:1024AA007751800A5C6E7B51800A5C58D8B060EF25
:1024BA0012F062EF12F080EF12F07AC05CF07BC08B
:1024CA005DF05C1E5D1E5C4A5D2A76515C5C5D5067
:1024DA00800A5E6E7751800A5E58D8B077EF12F0A4
:1024EA0079EF12F080EF12F0BA80BA92BA94000E25
:1024FA00BF6F000EBE6F77BF8BEF12F0775108E106
:10250A007605D8A08BEF12F08DEF12F092EF12F051
:10251A00BA90BA82BA84BE69BF69BEB102D0BE940B
:10252A0001D0BE84010E00019E6F200E9F6F78C0FD
:10253A00A0F079C0A1F074C0A2F075C0A3F076C073
:10254A00A4F077C0A5F0BEC0A6F0BFC0A7F0A0EC6B
:10255A001CF0210E5C6E760EE82EFED75C2EFCD7A0
:10256A0000D03AEF11F00DEF00F01250800B1B6E05
:10257A0012501224216E11AEC5EF12F0C7EF12F0FD
:10258A00C8EF12F021802150D8B4CEEF12F0D0EF6C
:10259A0012F0E3EF12F02128D8A4D6EF12F0D8EF08
:1025AA0012F0E0EF12F0000E0F6E000E106E000E29
:1025BA00116E000E126E118EEBEF12F0000E0F6EFE
:1025CA00000E106E000E116E000E126E1650800B69
:1025DA001B1A16501624206E15AEF6EF12F0F8EFFD
:1025EA0012F0F9EF12F020802050D8B4FFEF12F069
:1025FA0001EF13F014EF13F02028D8A407EF13F01B
:10260A0009EF13F011EF13F0000E136E000E146EA3
:10261A00000E156E000E166E158E1CEF13F0000ECE
:10262A00136E000E146E000E156E000E166E2050FC
:10263A00D8B422EF13F024EF13F02CEF13F021504B
:10264A00D8A42AEF13F02CEF13F036EF13F0000E94
:10265A000F6E000E106E000E116E000E126EE0EF7D
:10266A0014F015500F026F00CCFF26F06F00D0FF58
:10267A0027F026501C6E1D6A1E6A1F6A2750226E9A
:10268A00236A246A256A145010026F00CCFF26F0D0
:10269A006F00D0FF27F026501C26000E1D221E2296
:1026AA001F2227502226000E2322242225221350DD
:1026BA0011026F00CCFF26F06F00D0FF27F02650E2
:1026CA001C26000E1D221E221F2227502226000E23
:1026DA002322242225221EC01FF01DC01EF01CC06A
:1026EA001DF01C6A135010026F00CCFF26F06F0019
:1026FA00D0FF27F026501C2627501D22000E1E222E
:10270A00000E1F2214500F026F00CCFF26F06F003C
:10271A00D0FF27F026501C2627501D22000E1E220D
:10272A00000E1F221EC01FF01DC01EF01CC01DF08F
:10273A001C6A13500F026F00CCFF26F06F00D0FF07
:10274A0027F026501C2627501D22000E1E22000E9E
:10275A001F22155010026F00CCFF26F06F00D0FF29
:10276A0027F02650222627502322000E2422000E6C
:10277A002522145011026F00CCFF26F06F00D0FF03
:10278A0027F02650222627502322000E2422000E4C
:10279A002522155011026F00CCFF26F06F00D0FFE2
:1027AA0027F02650176E2750186E196A1A6A19C030
:1027BA001AF018C019F017C018F0176A1750222615
:1027CA0018502322195024221A5025221CC017F00F
:1027DA001DC018F01EC019F01FC01AF0190EFBEF29
:1027EA0013F0D8901A32193218321732E82EF6EF4F
:1027FA0013F01750222618502322195024221A5057
:10280A0025221EC01FF01DC01EF01CC01DF01C6A30
:10281A00205021C017F0186A1726000E1822820EBF
:10282A001724266EFF0E1820276E31EF14F0D89069
:10283A0022362336243625361FAE26EF14F028EF2B
:10284A0014F029EF14F02280D8901C361D361E365B
:10285A001F362606D8A0270624AE36EF14F038EF26
:10286A0014F01CEF14F0000E206E1FAE3FEF14F0B0
:10287A0041EF14F065EF14F0FF0E1C14176EFF0EF3
:10288A001D14186EFF0E1E14196E7F0E1F141A6E79
:10289A001750181019101A10D8B456EF14F058EF30
:1028AA0014F05CEF14F0010E206E65EF14F022A014
:1028BA0061EF14F063EF14F065EF14F058EF14F0C1
:1028CA002050D8B46BEF14F06DEF14F091EF14F0C0
:1028DA00010E2226000E23222422252225A078EF8B
:1028EA0014F07AEF14F091EF14F022C017F023C01D
:1028FA0018F024C019F025C01AF01A341A32193205
:10290A001832173217C022F018C023F019C024F069
:10291A001AC025F0264A272A27BE9CEF14F0275012
:10292A0008E12628D8A09CEF14F09EEF14F0A8EF37
:10293A0014F0000E226E000E236E800E246E7F0E9F
:10294A00256ED6EF14F027BEB5EF14F0275006E136
:10295A002604D8B0B3EF14F0B5EF14F0C1EF14F0B9
:10296A00000E226E000E236E000E246E000E256EDF
:10297A00000E1B6ED6EF14F026C021F0FF0E2216B1
:10298A00FF0E23167F0E2416000E251621A0D0EF67
:10299A0014F0D2EF14F0D3EF14F0248ED890213033
:1029AA00256E1B50251222C00FF023C010F024C040
:1029BA0011F025C012F0120020C038F021C039F001
:1029CA0022C03AF023C03BF024C03CF025C03DF0C1
:1029DA0026C03EF027C03FF03FBEF6EF14F0F9EFF5
:1029EA0014F0010EFAEF14F0000E366E376A365004
:1029FA003710D8B403EF15F005EF15F015EF15F001
:102A0A003F1E3E1E3D1E3C1E3B1E3A1E391E386CA2
:102A1A00000E39223A223B223C223D223E223F220C
:102A2A00000171BF1BEF15F01DEF15F01EEF15F039
:102A3A00729371BF2BEF15F0715106E17005D8B092
:102A4A0029EF15F02BEF15F031EF15F0000E336E6C
:102A5A00010E326E35EF15F070C032F071C033F0EE
:102A6A006EC034F06FC035F036503710D8A440EF3E
:102A7A0015F042EF15F049EF15F072A547EF15F082
:102A8A0049EF15F04CEF15F03406D8A03506000EC4
:102A9A00416E1F0E406E000E9D6FD0EF15F040067E
:102AAA00D8A041067E0E4024D96E000E4120DA6E6F
:102ABA0038C001F039C002F03AC003F03BC004F05C
:102ACA003CC005F03DC006F03EC007F03FC008F02C
:102ADA000A0E096E000E0A6E000E0B6E000E0C6EC8
:102AEA00000E0D6E000E0E6E000E0F6E000E106EB2
:102AFA00FBEC18F001C028F002C029F003C02AF04C
:102B0A0004C02BF005C02CF006C02DF007C02EF033
:102B1A0008C02FF028C013F02AC014F01BEC1CF0D8
:102B2A001350300FDF6E3206D8A033063406D8A011
:102B3A00350638C001F039C002F03AC003F03BC094
:102B4A0004F03CC005F03DC006F03EC007F03FC0AF
:102B5A0008F00A0E096E000E0A6E000E0B6E000EC9
:102B6A000C6E000E0D6E000E0E6E000E0F6E000E35
:102B7A00106E37EC18F001C038F002C039F003C00B
:102B8A003AF004C03BF005C03CF006C03DF007C077
:102B9A003EF008C03FF041BEDBEF15F0415008E1BE
:102BAA004004D8A0DBEF15F0DDEF15F00EEF16F0BC
:102BBA00385039103A103B103C103D103E103F106F
:102BCA00D8A4EAEF15F0ECEF15F054EF15F033BE88
:102BDA00F9EF15F0335006E13204D8B0F7EF15F0EB
:102BEA00F9EF15F054EF15F035BE04EF16F0355035
:102BFA0008E13404D8A004EF16F006EF16F00EEF41
:102C0A0016F0000172B30CEF16F00EEF16F054EF47
:102C1A0015F036503710D8A415EF16F017EF16F046
:102C2A001FEF16F0000172A51DEF16F01FEF16F048
:102C3A003EEF16F04006D8A0410636503710D8A409
:102C4A0029EF16F02BEF16F031EF16F0000E316E69
:102C5A002B0E306E35EF16F0000E316E2D0E306EE3
:102C6A007E0E4024D96E000E4120DA6E6000C3F059
:102C7A00DFFF1EC013F01FC014F07E0E4024156E35
:102C8A00000E4120166E34C017F035C018F030EC33
:102C9A001AF013C01EF014C01FF01200600013F1E6
:102CAA00D9FF600017F1DAFF6F007BFFF6FF6F00B4
:102CBA0077FFF7FF000EF86E0800F550250AD8A432
:102CCA0069EF16F06BEF16F039EF17F0600013F1A9
:102CDA00D9FF600017F1DAFFDE2A000EDD22000EAE
:102CEA0000016F6F000E6E6F6EC072F06FC073F0EE
:102CFA0070697169600013F1D9FF600017F1DAFF9A
:102D0A006F007BFFF6FF6F0077FFF7FF000EF86E8C
:102D1A000800F550640AD8B495EF16F097EF16F04C
:102D2A00AFEF16F0600013F1D9FF600017F1DAFF78
:102D3A006F007BFFF6FF6F0077FFF7FF000EF86E5C
:102D4A000800F550690AD8A4ADEF16F0AFEF16F0F7
:102D5A00F9EF16F0600013F1D9FF600017F1DAFFFE
:102D6A00DE2A000EDD2260001BF1D9FF60001FF190
:102D7A00DAFF6F007CFF48F0020EDE266F007CFF50
:102D8A0049F0000EDD22600023F1D9FF600027F12F
:102D9A00DAFF6F0078FF4AF06F0074FF4BF0000E05
:102DAA004BBEFF0E4C6E4D6E4E6E4F6E506E516E98
:102DBA0042C01EF043C01FF04AC020F04BC021F0B1
:102DCA004CC022F04DC023F04EC024F04FC025F075
:102DDA0050C026F051C027F0E1EC14F01EC042F0BA
:102DEA001FC043F05CEF17F0600013F1D9FF6000D9
:102DFA0017F1DAFF6F007BFFF6FF6F0077FFF7FF2F
:102E0A00000EF86E0800F550250AD8A40FEF17F047
:102E1A0011EF17F02AEF17F0600013F1D9FF6000E5
:102E2A0017F1DAFFDE2A000EDD22000E046E250EEF
:102E3A00036E42C005F043C006F0E6EC1AF0000E3D
:102E4A00436E010E426E5CEF17F0600013F1D9FF7A
:102E5A00600017F1DAFFDE2A000EDD22000E436E53
:102E6A00000E426E5CEF17F0600013F1D9FF6000AC
:102E7A0017F1DAFF6F007BFFF6FF6F0077FFF7FFAE
:102E8A00000EF86E0800F550036E046A42C005F0A1
:102E9A0043C006F0E6EC1AF0600013F1D9FF6000B7
:102EAA0017F1DAFFDE2A000EDD2224EF17F01200F6
:102EBA00096E0950D8B464EF17F066EF17F088EF7F
:102ECA0017F004BE6DEF17F06BEF17F088EF17F0ED
:102EDA0001C005F002C006F003C007F004C008F004
:102EEA00051E061E071E081E052A000E06220722B8
:102EFA00082205C00BF006C00CF007C00DF008C090
:102F0A000EF090EF17F001C00BF002C00CF003C0F6
:102F1A000DF004C00EF00150021003100410D8A4E2
:102F2A0099EF17F09BEF17F0A5EF17F0000E016E5F
:102F3A00000E026E000E036E000E046E36EF18F0DD
:102F4A00960E0A6EAFEF17F00A2AD8900E320D329B
:102F5A000C320B32000E0B14056E000E0C14066EAA
:102F6A00000E0D14076EFE0E0E14086E05500610A4
:102F7A0007100810D8A4C4EF17F0C6EF17F0A9EF8E
:102F8A0017F0D4EF17F00A2A010E0B26000E0C22B6
:102F9A000D220E22D8900E320D320C320B32000E58
:102FAA000B14056E000E0C14066E000E0D14076E3F
:102FBA00FF0E0E14086E0550061007100810D8A44C
:102FCA00E9EF17F0EBEF17F0C8EF17F0F3EF17F090
:102FDA000A06D8900B360C360D360E360DBEF8EFB3
:102FEA0017F0FAEF17F002EF18F0020E0A6000EF7E
:102FFA0018F002EF18F0EDEF17F00AB007EF18F02B
:10300A0009EF18F00AEF18F00D9ED8900A320AC09C
:10301A0005F0066A076A086A05C008F0076A066AC0
:10302A00056A05500B1206500C1207500D12085073
:10303A000E120950D8B424EF18F026EF18F02EEF2C
:10304A0018F004BE2DEF18F02BEF18F02EEF18F041
:10305A000E8E0BC001F00CC002F00DC003F00EC0C2
:10306A0004F01200000E126E10BE40EF18F03EEF90
:10307A0018F052EF18F0101E0F1E0E1E0D1E0C1E19
:10308A000B1E0A1E096C000E0A220B220C220D22AC
:10309A000E220F221022010E126E08BE59EF18F0EE
:1030AA0057EF18F06BEF18F0081E071E061E051ED4
:1030BA00041E031E021E016C000E022203220422B9
:1030CA000522062207220822010E121A20EE13F008
:1030DA00070EDE6AE806FDE209500A100B100C1012
:1030EA000D100E100F101010D8B47EEF18F080EFEC
:1030FA0018F0D2EF18F0010E116E8EEF18F0D8907A
:10310A0009360A360B360C360D360E360F361036A1
:10311A00112A10AE93EF18F095EF18F084EF18F01B
:10312A00D890133614361536163617361836193619
:10313A001A360950015C0A5002580B5003580C50B9
:10314A0004580D5005580E5006580F500758105085
:10315A000858D8A0B3EF18F0B5EF18F0C6EF18F07A
:10316A000950015E0A50025A0B50035A0C50045A75
:10317A000D50055A0E50065A0F50075A1050085A49
:10318A001380D89010320F320E320D320C320B32BD
:10319A000A320932112E95EF18F01250D8B4D8EF2E
:1031AA0018F0DAEF18F0EAEF18F01A1E191E181EB6
:1031BA00171E161E151E141E136C000E142215223D
:1031CA0016221722182219221A2213C001F014C03B
:1031DA0002F015C003F016C004F017C005F018C0BD
:1031EA0006F019C007F01AC008F01200000E126E9D
:1031FA0008BE04EF19F002EF19F016EF19F0081ED5
:10320A00071E061E051E041E031E021E016C000E6A
:10321A000222032204220522062207220822010E84
:10322A00126E10BE1DEF19F01BEF19F02DEF19F0F9
:10323A00101E0F1E0E1E0D1E0C1E0B1E0A1E096CE2
:10324A00000E0A220B220C220D220E220F2210221D
:10325A0009500A100B100C100D100E100F10101040
:10326A00D8B43AEF19F03CEF19F084EF19F0010ED7
:10327A00116E4AEF19F0D89009360A360B360C3619
:10328A000D360E360F361036112A10AE4FEF19F0E2
:10329A0051EF19F040EF19F00950015C0A50025839
:1032AA000B5003580C5004580D5005580E50065830
:1032BA000F50075810500858D8A066EF19F068EF59
:1032CA0019F078EF19F00950015E0A50025A0B50B2
:1032DA00035A0C50045A0D50055A0E50065A0F50F4
:1032EA00075A1050085AD89010320F320E320D3247
:1032FA000C320B320A320932112E51EF19F01250E8
:10330A00D8B48AEF19F08CEF19F09CEF19F0081E67
:10331A00071E061E051E041E031E021E016C000E59
:10332A00022203220422052206220722082201C0C1
:10333A0001F002C002F003C003F004C004F005C0AB
:10334A0005F006C006F007C007F008C008F0120032
:10335A002A342B34316E3150D8A4B6EF19F0B8EFB5
:10336A0019F0C2EF19F0000E286E000E296E000E39
:10337A002A6E000E2B6E2FEF1AF028C02CF029C0EF
:10338A002DF02AC02EF02BC02FF0200ED2EF19F00C
:10339A00D8902F322E322D322C32E82ECDEF19F062
:1033AA002C50306E2A8EFF0E2816FF0E2916FF0E9D
:1033BA002A16000E2B16960E315E31BEE9EF19F071
:1033CA00E7EF19F0FFEF19F03150800A970FD8B0E4
:1033DA00F1EF19F0F3EF19F0F5EF19F0B8EF19F072
:1033EA00D8902B322A3229322832313EF5EF19F0A1
:1033FA0017EF1AF01F0E316405EF1AF007EF1AF0F3
:10340A000FEF1AF0B8EF19F0D890283629362A3675
:10341A002B3631063150D8A415EF1AF017EF1AF0EF
:10342A0009EF1AF03050D8B41DEF1AF01FEF1AF056
:10343A0027EF1AF02B1E2A1E291E286C000E29229D
:10344A002A222B2228C028F029C029F02AC02AF0D3
:10345A002BC02BF01200000172A136EF1AF038EFE0
:10346A001AF042EF1AF015C00CF016C00DF013C096
:10347A000EF014C00FF0D8EC1BF018BE47EF1AF08C
:10348A0049EF1AF04FEF1AF017C01CF018C01DF0E0
:10349A0053EF1AF0000E1D6E000E1C6E000E1B6E0E
:1034AA00000E1A6E65EF1AF0000E046E200E036EFF
:1034BA0013C005F014C006F0E6EC1AF01A4A1B2AEB
:1034CA001C501A5C1B50800A196E1D50800A19582C
:1034DA00D8A072EF1AF074EF1AF059EF1AF000013F
:1034EA0072B17AEF1AF07CEF1AF086EF1AF015C073
:1034FA000CF016C00DF013C00EF014C00FF0D8EC8B
:10350A001BF015C001F016C002F03BEC1CF01C5079
:10351A000124136E1D500220146E1200040EBE6E9A
:10352A00000EBD6E070EBA6E000EBB6E000EBC6EAC
:10353A00030EC66EF80EC26EFB0EC36EC468C56873
:10354A003A017069FC0E606FF20E506F030E806FC5
:10355A00F80E406F000E716F000E816F000E516FF2
:10356A00000E416F000E616F000E5A6F000E5B6F06
:10357A00000E6A6F000E6B6F000E7A6F000E7B6F83
:10358A00000E826F000E426F000E526F000E626FC5
:10359A00000E726F4369536963697369070E836F1B
:1035AA0044695469646974690F0E846F080EC06FA8
:1035BA00100ED16F130E0A6F110ED26F0B0EE56F3C
:1035CA00120005500610D8B4EDEF1AF0EFEF1AF01A
:1035DA00F8EF1AF005500610D8A4F6EF1AF0F8EF33
:1035EA001AF0FDEF1AF0035038EC1DF030EF1BF023
:1035FA0020EE04F00550D9260650DA22DE50DE10FD
:10360A00D8B40AEF1BF00CEF1BF027EF1BF020EEEB
:10361A0004F00550D9260650DA2210EE02F00550C1
:10362A00E1260650E222DE50E65CE650800A0B6E86
:10363A00DE50800A0B58D8B025EF1BF027EF1BF09D
:10364A0030EF1BF020EE02F00550D9260650DA22A0
:10365A00DE2A000EDD221200000E3D01EC6F000E84
:10366A00ED6F000EEE6F000EEF6F000EF06F000EA2
:10367A00F16FB00EF26F800EF36F000EF46F0C0E46
:10368A00F56F000EF66F000EF76F000EF86F000E62
:10369A00F96F000EFA6F000E016E000E026E000E38
:1036AA00036E23EC1DF0000E016E000E026E000E7A
:1036BA00036E1CEC1DF0000E016E000E026E000E71
:1036CA00036E2AEC1DF0000E5F6E1200390191AFF5
:1036DA0071EF1BF073EF1BF07EEF1BF0A1AF78EFD9
:1036EA001BF07AEF1BF07EEF1BF046EC1DF0A2EF09
:1036FA001BF091AD83EF1BF085EF1BF090EF1BF0F1
:10370A00A1AD8AEF1BF08CEF1BF090EF1BF049EC98
:10371A001DF0A2EF1BF091A195EF1BF097EF1BF0A4
:10372A00A2EF1BF0A1A19CEF1BF09EEF1BF0A2EFF2
:10373A001BF03DEC1DF0A2EF1BF0110054C058F035
:10374A0055C059F0000E00016D6F000E6C6FC1EF8D
:10375A001BF052C042F053C043F0580E446E000EA4
:10376A00456E56C046F057C047F053EC16F042502B
:10377A0000016C2743506D23600063F1F6FF60007F
:10378A0067F1F7FF000EF86E0800F5500009D8A49B
:10379A00D1EF1BF0D3EF1BF0AEEF1BF06CC052F071
:1037AA006DC053F01200000E126E000E116EE9EF9A
:1037BA001BF010C003F0046A0EC005F00FC006F03B
:1037CA00E6EC1AF0114A122A11500C24D96E125042
:1037DA000D20DA6EDF50106E1050D8A4F7EF1BF0F0
:1037EA00F9EF1BF0DEEF1BF01200840EF66E3A0EB4
:1037FA00F76E000EF86E00EEB8F010EE08F0090051
:10380A006F00D7FFEEFFE550E150F9E100EE60F0FE
:10381A003E0EEE6AE806FDE15F6A080ED56E000EFE
:10382A00D66E000ED76E00015DEF10F014BE28EFC1
:10383A001CF0145006E11304D8B026EF1CF028EF50
:10384A001CF036EF1CF013C015F014C016F0151E4C
:10385A00161E154A162A15C013F016C014F03AEFB0
:10386A001CF013C013F014C014F0120001C003F0CE
:10387A0002C004F043EF1CF0014A022A600007F07C
:10388A00D9FF60000BF0DAFFDF50D8A44FEF1CF02D
:10389A0051EF1CF041EF1CF00350015C016E045023
:1038AA000258026E1200800E3F011E6F420E1F6FF9
:1038BA00000E206F000E216F000E236F000E226F84
:1038CA00000E1D6F000E1C6F000E1B6F3901918FC9
:1038DA00918D3F011F8F12000001AC51AD11AE1145
:1038EA00D8B47AEF1CF07CEF1CF089EF1CF002D8F8
:1038FA0089EF1CF00500FA6EAC51FD6EAD51FE6EFB
:10390A00AE51FF6EFA50120012000001BFBF96EFCF
:10391A001CF0BF5108E1BE05D8A096EF1CF098EF45
:10392A001CF09CEF1CF0744B752B9FEF1CF0740776
:10393A00D8A075071200A00E5A6E000E5B6E000E1C
:10394A00526E000E536E9EC054F09FC055F05A0E30
:10395A00566E000E576EA3EC1BF012004CEC1DF0D5
:10396A00C6EC1CF093EC1AF010EC1DF0E7EC1CF01E
:10397A0058EC1CF0D8EC1CF0F5EC1CF031EC1BF008
:10398A001200000E3901C06F000EC16F000EC26F27
:10399A00000EC36F000EC46F000EC56F000EC66F17
:1039AA00000EC76F1200010EAE6E000EAD6E000E55
:1039BA00AF6E000EAB6E000EAA6E3901A495F30E1F
:1039CA00AC6E1200010EA26E000EA16E000EA36E66
:1039DA009F68000E9E6E3901A791B00EA06E12006C
:1039EA003901A191D2809C0E016E3A0E026E000E30
:1039FA00036E31EC1DF0390191811200016E39011B
:103A0A00A3A90AEF1DF00CEF1DF004EF1DF06000F2
:103A1A0007F0EAFD1200640E3901D96F000EDB6F60
:103A2A00000EDD6F030EDF6F000EDE6F120001C0A5
:103A3A00B2F002C0B3F003C0B4F0120001C0B5F096
:103A4A0002C0B6F003C0B7F0120001C0AFF002C066
:103A5A00B0F003C0B1F0120001C0ACF002C0ADF08A
:103A6A0003C0AEF01200026E025003EC1DF0120009
:103A7A003901A19171EC1CF0120003000000010051
:103A8A0001003901A19F12003901A19D1200D29AA9
:043A9A001200120004
:020000040020DA
:10000000FF0FFF0FFF0FFF0FFF0FFF0FFF0FFF0F80
:020000040030CA
:0A000000ECFFF7FF9FFFFFFFFFFF7B
:00000001FF
