:020000040000FA
:040000000DEF00F010
:040008005CEF1DF09C
:06001800FF00EBEF1DF0FC
:102000000053746172742075702064656C61792E60
:1020100020426567696E2077616974696E67206622
:102020006F7220722F632070756C736573206F6EF2
:1020300020696E7075742070696E2E200D0A00493B
:102040006E7075742070756C7365203D202564205A
:1020500048616C6C20636F756E746572203D20253D
:1020600064204572726F72207369676E616C3D20E7
:102070002564200D0A00446174612077696C6C202E
:102080006265207072696E74656420616674657241
:102090002070756C7365732061726520726563656D
:1020A000697665642E200D0A00002B50800B346E7B
:1020B0002B502B24366E2AAE60EF10F062EF10F03A
:1020C00063EF10F036803650D8B469EF10F06BEF44
:1020D00010F080EF10F03628D8A471EF10F073EFF5
:1020E00010F07BEF10F0000E286E000E296E000E2F
:1020F0002A6E000E2B6E2A8E000E2B6E88EF10F0CB
:10210000000E286E000E296E000E2A6E000E2B6E39
:102110002F50800B356E34503518D8B492EF10F034
:1021200094EF10F095EF10F0348C2F502F24356E73
:102130002EAE9DEF10F09FEF10F0A0EF10F0358065
:102140003550D8B4A6EF10F0A8EF10F0BDEF10F0A6
:102150003528D8A4AEEF10F0B0EF10F0B8EF10F0C3
:10216000000E2C6E000E2D6E000E2E6E000E2F6EC9
:102170002E8E000E2F6EC5EF10F0000E2C6E000E8E
:102180002D6E000E2E6E000E2F6E3650355CD8B0C0
:10219000CCEF10F0CEEF10F0F5EF10F034ACD3EF41
:1021A00010F0D5EF10F0D7EF10F0800E341A36C0D3
:1021B00037F035C036F037C035F028C037F02CC0C6
:1021C00028F037C02CF029C037F02DC029F037C0D7
:1021D0002DF02AC037F02EC02AF037C02EF02BC0C9
:1021E00037F02FC02BF037C02FF0000E376E36506F
:1021F00035C030F0316A305E000E315A31BE0AEF20
:1022000011F0315009E11A0E305CD8A00AEF11F03C
:102210000CEF11F043EF11F0285029102A102B1069
:10222000D8A415EF11F018EF11F0010E19EF11F00D
:10223000000E376E000E286E000E296E000E2A6EFC
:10224000000E2B6E35C036F04CEF11F037A02BEF9F
:1022500011F02DEF11F033EF11F0D8903730010964
:10226000376E35EF11F0D890373228A03AEF11F0E1
:102270003CEF11F03DEF11F0378E2B342B322A3228
:1022800029322832362A3550365CD8A04AEF11F070
:102290004CEF11F026EF11F034BC51EF11F053EF79
:1022A00011F093EF11F03650D8A459EF11F05BEF15
:1022B00011F065EF11F0000E286E000E296E000E71
:1022C0002A6E000E2B6EB4EF12F02C5028262D50E3
:1022D00029222E502A222F502B222BA072EF11F0F0
:1022E00074EF11F020EF12F037A079EF11F07BEFCF
:1022F00011F081EF11F0D89037300109376E83EF7C
:1023000011F0D890373228A088EF11F08AEF11F041
:102310008BEF11F0378E2B342B322A3229322832B0
:10232000362A20EF12F02C50285C2D5029582E50C0
:102330002A582B50800A306E2F50800A3058D8B05F
:10234000A4EF11F0A6EF11F0D1EF11F028502C5CA2
:10235000306E29502D58316E2A502E58326E2B5027
:102360002F58336EFF0E3024286EFF0E3120296E59
:10237000FF0E32202A6EFF0E33202B6E800E341A91
:10238000376C3750D8A4C7EF11F0C9EF11F0D9EF6F
:1023900011F0010E2826000E29222A222B22D9EF25
:1023A00011F02C50285E2D50295A2E502A5A2F50A9
:1023B0002B5A285029102A102B10D8A4E2EF11F024
:1023C000E4EF11F019EF12F03750D8A4EAEF11F052
:1023D000ECEF11F019EF12F0000E286E000E296ECE
:1023E000000E2A6E000E2B6EB4EF12F0D890283635
:1023F00029362A362B3637AE00EF12F002EF12F0F4
:1024000003EF12F0288037A008EF12F00AEF12F065
:102410000EEF12F0D880373610EF12F0D890373622
:102420003650D8B416EF12F018EF12F019EF12F080
:1024300036062AAE1EEF12F020EF12F0F6EF11F082
:10244000000E356E37AE27EF12F029EF12F041EF94
:1024500012F037C030F07F0E3016D8B432EF12F0E1
:1024600034EF12F038EF12F0010E356E41EF12F03A
:1024700028A03DEF12F03FEF12F041EF12F034EFE1
:1024800012F03550D8B447EF12F049EF12F074EF64
:1024900012F0010E2826000E29222A222B222BA020
:1024A00054EF12F056EF12F074EF12F028C030F033
:1024B00029C031F02AC032F02BC033F0333433322C
:1024C00032323132303230C028F031C029F032C0DF
:1024D0002AF033C02BF03628D8B471EF12F073EF26
:1024E00012F074EF12F0362A3628D8B47AEF12F0D0
:1024F0007CEF12F084EF12F03650D8A482EF12F085
:1025000084EF12F096EF12F0000E286E000E296E86
:10251000000E2A6E000E2B6E3650D8A492EF12F0E9
:1025200094EF12F096EF12F0000E346E36A09BEF8F
:1025300012F09DEF12F0A0EF12F02A8EA1EF12F030
:102540002A9ED89036302B6E34AEA9EF12F0ABEF46
:1025500012F0ACEF12F02B8E28C028F029C029F021
:102560002AC02AF02BC02BF012008EEC1EF0EE0ECB
:10257000016E3D0E026E000E036E14EC1FF0D28E43
:10258000520E5C6E2A0EE82EFED75C2EFCD7BA8067
:10259000BA92BA84BE94A50E0001C06F200EC16F1E
:1025A0007BEC1EF0010E0001C06F200EC16F7BECB2
:1025B0001EF0760E0001C06F200EC16F7BEC1EF086
:1025C000F9EF12F0170E5D6E320E5C6EC00EE82E43
:1025D000FED75C2EFCD75D2EFAD700D028EF13F083
:1025E000520E5C6E2A0EE82EFED75C2EFCD728EF2A
:1025F00013F08AC05CF08BC05DF05D50000AD8B467
:1026000004EF13F028EF13F05C50000AD8B4E2EFA7
:1026100012F0010AD8B4F0EF12F0030AD8B4F0EFC8
:1026200012F028EF13F0000E00017F6F000E7E6F96
:1026300042EF13F0000E00017F6F320E7E6F42EF0B
:1026400013F0000E00017F6F050E7E6F42EF13F056
:102650008AC05CF08BC05DF05D50000AD8B433EFE7
:1026600013F042EF13F05C50000AD8B413EF13F0EC
:10267000010AD8B41AEF13F0030AD8B421EF13F00B
:1026800042EF13F03F0118510001B86F3F0119519B
:102690000001B96F3F011A510001BA6FBB6B3F01D6
:1026A00015510001646F3F0116510001656F3F0134
:1026B00017510001666F676B3F0112510001606F97
:1026C0003F0113510001616F3F0114510001626F1E
:1026D000636B7CC07EF07DC07FF0000E816F000ECA
:1026E000806F30EF14F0000E2C6E000E2D6E700E09
:1026F0002E6EC30E2F6E000E136E000E146E000EA3
:10270000156E3F0E166EB8C001F0B9C002F0BAC027
:1027100003F0BBC004F0000E4EEC19F001C00FF046
:1027200002C010F003C011F004C012F005EC15F067
:102730000FC028F010C029F011C02AF012C02BF0F1
:1027400055EC10F028C038F029C039F02AC03AF012
:102750002BC03BF09EEC1BF038C086F039C087F0F0
:1027600051EF14F0000E2C6E000E2D6E700E2E6EBA
:10277000C30E2F6E000E136E000E146E000E156E3B
:102780003F0E166EB8C001F0B9C002F0BAC003F037
:10279000BBC004F0000E4EEC19F001C00FF002C0F7
:1027A00010F003C011F004C012F005EC15F00FC0DA
:1027B00028F010C029F011C02AF012C02BF055ECFF
:1027C00010F028C038F029C039F02AC03AF02BC0E8
:1027D0003BF09EEC1BF038C086F039C087F051EF1B
:1027E00014F0000E2C6E000E2D6E700E2E6EC30EA9
:1027F0002F6E000E136E000E146E000E156E3F0E3F
:10280000166EB8C001F0B9C002F0BAC003F0BBC088
:1028100004F0000E4EEC19F001C00FF002C010F0F1
:1028200003C011F004C012F005EC15F00FC028F041
:1028300010C029F011C02AF012C02BF055EC10F096
:1028400028C038F029C039F02AC03AF02BC03BF03C
:102850009EEC1BF038C086F039C087F051EF14F0C1
:102860008AC05CF08BC05DF05D50000AD8B43BEFCD
:1028700014F051EF14F05C50000AD8B473EF13F069
:10288000010AD8B4B2EF13F0030AD8B4F1EF13F091
:1028900051EF14F0000E00017F6F320E7E6F80EF5B
:1028A00014F08AC05CF08BC05DF05D50000AD8B4B3
:1028B0005CEF14F080EF14F05C50000AD8B480EFA5
:1028C00014F0010AD8B44AEF14F0030AD8B480EF28
:1028D00014F080EF14F0000E0001896F050E886F70
:1028E0009AEF14F0000E0001896F140E886F9AEFB2
:1028F00014F0000E0001896F020E886F9AEF14F039
:102900008AC05CF08BC05DF05D50000AD8B48BEFDC
:1029100014F09AEF14F05C50000AD8B46BEF14F086
:10292000010AD8B472EF14F0030AD8B479EF14F0A6
:102930009AEF14F0000186517E5D846F87517F59B4
:10294000856F85BFA8EF14F0A6EF14F0ACEF14F07C
:10295000BA90BA82BA84BE848851845D8551800A57
:102960005C6E8951800A5C58D8B0B9EF14F0BBEFA7
:1029700014F0D6EF14F088C05CF089C05DF05C1EE6
:102980005D1E5C4A5D2A84515C5C5D50800A5E6E0F
:102990008551800A5E58D8B0D0EF14F0D2EF14F011
:1029A000D6EF14F0BA80BA92BA94BE9485BFE1EF24
:1029B00014F0855108E18405D8A0E1EF14F0E3EFAD
:1029C00014F0E7EF14F0BA80BA92BA84BE943F0EC6
:1029D000C06F200EC16F86C0C2F087C0C3F07EC03A
:1029E000C4F07FC0C5F084C0C6F085C0C7F07BECE2
:1029F0001EF0210E5C6E760EE82EFED75C2EFCD704
:102A000000D042EF13F00DEF00F01250800B1F6E5C
:102A100012501224266E11AE10EF15F012EF15F0C1
:102A200013EF15F026802650D8B419EF15F01BEFE0
:102A300015F030EF15F02628D8A421EF15F023EF7C
:102A400015F02BEF15F0000E0F6E000E106E000E3D
:102A5000116E000E126E118E000E126E38EF15F010
:102A6000000E0F6E000E106E000E116E000E126E34
:102A70001650800B1F1A16501624276E15AE43EF02
:102A800015F045EF15F046EF15F027802750D8B424
:102A90004CEF15F04EEF15F063EF15F02728D8A492
:102AA00054EF15F056EF15F05EEF15F0000E136EB3
:102AB000000E146E000E156E000E166E158E000EB2
:102AC000166E6BEF15F0000E136E000E146E000EF6
:102AD000156E000E166E1350141015101610D8A493
:102AE00074EF15F076EF15F08EEF15F0000E0F6E07
:102AF000000E106E000E116E000E126E800E11127E
:102B00007F0E12121F5012120FC00FF010C010F0E3
:102B100011C011F012C012F0D1EF16F02650D8A457
:102B200094EF15F096EF15F0A0EF15F0000E0F6E74
:102B3000000E106E000E116E000E126ED1EF16F028
:102B4000275026C017F0186A175E000E185A7F0E1D
:102B50001724206E000E1820216E0FC01BF010C02D
:102B60001CF011C01DF012C01EF0000E0F6E000E02
:102B7000106E000E116E000E126E000E226E000E10
:102B8000236E000E246E000E256E000E276E01EFE0
:102B900016F02750D8B4CFEF15F0D1EF15F0E8EFCD
:102BA00015F0D8901B361C361D361E36D8900F36C1
:102BB00010361136123625AEE0EF15F0E2EF15F0C3
:102BC000E3EF15F00F80D8902236233624362536D1
:102BD00013501B5C14501C5815501D5816501E588D
:102BE000D8A0F5EF15F0F7EF15F000EF16F0258CF3
:102BF00013501B5E14501C5A15501D5A16501E5A65
:102C0000272A190E276407EF16F009EF16F0C9EF0F
:102C100015F01B501C101D101E10D8B412EF16F02A
:102C200014EF16F02CEF16F022802CEF16F0D8904F
:102C30000F3610361136123625AE21EF16F023EF7F
:102C400016F024EF16F00F80D89022362336243663
:102C500025362006D8A0210611AE31EF16F033EF4D
:102C600016F017EF16F0000E276E25AE3AEF16F0AD
:102C70003CEF16F060EF16F0FF0E2214176EFF0EF9
:102C80002314186EFF0E2414196E7F0E25141A6E6D
:102C90001750181019101A10D8B451EF16F053EF3E
:102CA00016F057EF16F0010E276E60EF16F00FA02A
:102CB0005CEF16F05EEF16F060EF16F053EF16F0D3
:102CC0002750D8B466EF16F068EF16F08CEF16F0C8
:102CD000010E0F26000E10221122122212A073EFF5
:102CE00016F075EF16F08CEF16F00FC017F010C04D
:102CF00018F011C019F012C01AF01A341A32193231
:102D00001832173217C00FF018C010F019C011F0A8
:102D10001AC012F0204A212A21BE97EF16F0215046
:102D200008E12028D8A097EF16F099EF16F0A4EF4D
:102D300016F0000E216E2068000E0F6E000E106E51
:102D4000000E116E000E126E21BEB1EF16F0215072
:102D500006E12004D8B0AFEF16F0B1EF16F0BFEFE8
:102D600016F0000E216E000E206E000E0F6E000E8B
:102D7000106E000E116E000E126E000E1F6E20C03F
:102D800026F026A0C6EF16F0C8EF16F0CBEF16F02F
:102D9000118ECCEF16F0119ED8902630126E82EF75
:102DA00015F0120020C038F021C039F022C03AF0EE
:102DB00023C03BF024C03CF025C03DF026C03EF0CF
:102DC00027C03FF03FBEE7EF16F0EAEF16F0010E26
:102DD000EBEF16F0000E366E376A36503710D8B467
:102DE000F4EF16F0F6EF16F006EF17F03F1E3E1E5A
:102DF0003D1E3C1E3B1E3A1E391E386C000E392209
:102E00003A223B223C223D223E223F22000179BF52
:102E10000CEF17F00EEF17F00FEF17F07A9379BF62
:102E20001CEF17F0795106E17805D8B01AEF17F0CA
:102E30001CEF17F022EF17F0000E336E010E326E0A
:102E400026EF17F078C032F079C033F076C034F056
:102E500077C035F036503710D8A431EF17F033EF84
:102E600017F03AEF17F07AA538EF17F03AEF17F0AE
:102E70003DEF17F03406D8A03506000E416E1F0E48
:102E8000406E000EAB6FC1EF17F04006D8A04106B0
:102E90008C0E4024D96E000E4120DA6E38C001F04D
:102EA00039C002F03AC003F03BC004F03CC005F06A
:102EB0003DC006F03EC007F03FC008F00A0E096EA4
:102EC000000E0A6E000E0B6E000E0C6E000E0D6EE4
:102ED000000E0E6E000E0F6E000E106EECEC1AF06F
:102EE00001C028F002C029F003C02AF004C02BF072
:102EF00005C02CF006C02DF007C02EF008C02FF042
:102F000028C013F02AC014F00CEC1EF01350300F40
:102F1000DF6E3206D8A033063406D8A0350638C096
:102F200001F039C002F03AC003F03BC004F03CC0ED
:102F300005F03DC006F03EC007F03FC008F00A0EA5
:102F4000096E000E0A6E000E0B6E000E0C6E000E67
:102F50000D6E000E0E6E000E0F6E000E106E28EC41
:102F60001AF001C038F002C039F003C03AF004C0D2
:102F70003BF005C03CF006C03DF007C03EF008C085
:102F80003FF041BECCEF17F0415008E14004D8A01B
:102F9000CCEF17F0CEEF17F0FFEF17F038503910E5
:102FA0003A103B103C103D103E103F10D8A4DBEF10
:102FB00017F0DDEF17F045EF17F033BEEAEF17F02B
:102FC000335006E13204D8B0E8EF17F0EAEF17F01B
:102FD00045EF17F035BEF5EF17F0355008E1340432
:102FE000D8A0F5EF17F0F7EF17F0FFEF17F000019B
:102FF0007AB3FDEF17F0FFEF17F045EF17F03650FB
:103000003710D8A406EF18F008EF18F010EF18F0FA
:1030100000017AA50EEF18F010EF18F02FEF18F05E
:103020004006D8A0410636503710D8A41AEF18F041
:103030001CEF18F022EF18F0000E316E2B0E306EE0
:1030400026EF18F0000E316E2D0E306E8C0E4024DF
:10305000D96E000E4120DA6E6000C3F0DFFF1EC0A3
:1030600013F01FC014F08C0E4024156E000E41208A
:10307000166E34C017F035C018F021EC1CF013C0E8
:103080001EF014C01FF01200600013F1D9FF6000A1
:1030900017F1DAFF6F007BFFF6FF6F0077FFF7FF96
:1030A000000EF86E0800F550250AD8A45AEF18F063
:1030B0005CEF18F02AEF19F0600013F1D9FF6000FF
:1030C00017F1DAFFDE2A000EDD22000E0001776F15
:1030D000000E766F76C07AF077C07BF078697969F8
:1030E000600013F1D9FF600017F1DAFF6F007BFF7A
:1030F000F6FF6F0077FFF7FF000EF86E0800F5503F
:10310000640AD8B486EF18F088EF18F0A0EF18F032
:10311000600013F1D9FF600017F1DAFF6F007BFF49
:10312000F6FF6F0077FFF7FF000EF86E0800F5500E
:10313000690AD8A49EEF18F0A0EF18F0EAEF18F093
:10314000600013F1D9FF600017F1DAFFDE2A000EEC
:10315000DD2260001BF1D9FF60001FF1DAFF6F0074
:103160007CFF48F0020EDE266F007CFF49F0000E67
:10317000DD22600023F1D9FF600027F1DAFF6F0044
:1031800078FF4AF06F0074FF4BF0000E4BBEFF0E4D
:103190004C6E4D6E4E6E4F6E506E516E42C01EF0B4
:1031A00043C01FF04AC020F04BC021F04CC022F0B9
:1031B0004DC023F04EC024F04FC025F050C026F083
:1031C00051C027F0D2EC16F01EC042F01FC043F0F1
:1031D0004DEF19F0600013F1D9FF600017F1DAFF2D
:1031E0006F007BFFF6FF6F0077FFF7FF000EF86EB2
:1031F0000800F550250AD8A400EF19F002EF19F0E5
:103200001BEF19F0600013F1D9FF600017F1DAFF2E
:10321000DE2A000EDD22000E046E250E036E42C073
:1032200005F043C006F0D7EC1CF0000E436E010E13
:10323000426E4DEF19F0600013F1D9FF600017F1F5
:10324000DAFFDE2A000EDD22000E436E000E426E13
:103250004DEF19F0600013F1D9FF600017F1DAFFAC
:103260006F007BFFF6FF6F0077FFF7FF000EF86E31
:103270000800F550036E046A42C005F043C006F032
:10328000D7EC1CF0600013F1D9FF600017F1DAFFF2
:10329000DE2A000EDD2215EF19F01200096E09502A
:1032A000D8B455EF19F057EF19F079EF19F004BEC3
:1032B0005EEF19F05CEF19F079EF19F001C005F03D
:1032C00002C006F003C007F004C008F0051E061E89
:1032D000071E081E052A000E06220722082205C026
:1032E0000BF006C00CF007C00DF008C00EF081EF27
:1032F00019F001C00BF002C00CF003C00DF004C0C7
:103300000EF00150021003100410D8A48AEF19F037
:103310008CEF19F096EF19F0000E016E000E026EA0
:10332000000E036E000E046E27EF1AF0960E0A6E62
:10333000A0EF19F00A2AD8900E320D320C320B325F
:10334000000E0B14056E000E0C14066E000E0D140C
:10335000076EFE0E0E14086E0550061007100810BA
:10336000D8A4B5EF19F0B7EF19F09AEF19F0C5EF3F
:1033700019F00A2A010E0B26000E0C220D220E2235
:10338000D8900E320D320C320B32000E0B14056E3B
:10339000000E0C14066E000E0D14076EFF0E0E14B8
:1033A000086E0550061007100810D8A4DAEF19F0BF
:1033B000DCEF19F0B9EF19F0E4EF19F00A06D89034
:1033C0000B360C360D360E360DBEE9EF19F0EBEF6D
:1033D00019F0F3EF19F0020E0A60F1EF19F0F3EFB4
:1033E00019F0DEEF19F00AB0F8EF19F0FAEF19F062
:1033F000FBEF19F00D9ED8900A320AC005F0066A5C
:10340000076A086A05C008F0076A066A056A055077
:103410000B1206500C1207500D1208500E120950D4
:10342000D8B415EF1AF017EF1AF01FEF1AF004BE18
:103430001EEF1AF01CEF1AF01FEF1AF00E8E0BC0E1
:1034400001F00CC002F00DC003F00EC004F0120039
:10345000000E126E10BE31EF1AF02FEF1AF043EF8C
:103460001AF0101E0F1E0E1E0D1E0C1E0B1E0A1E25
:10347000096C000E0A220B220C220D220E220F22B2
:103480001022010E126E08BE4AEF1AF048EF1AF031
:103490005CEF1AF0081E071E061E051E041E031E02
:1034A000021E016C000E02220322042205220622C3
:1034B00007220822010E121A20EE13F0070EDE6A10
:1034C000E806FDE209500A100B100C100D100E104A
:1034D0000F101010D8B46FEF1AF071EF1AF0C3EF9D
:1034E0001AF0010E116E7FEF1AF0D89009360A36E5
:1034F0000B360C360D360E360F361036112A10AE3E
:1035000084EF1AF086EF1AF075EF1AF0D8901336A0
:103510001436153616361736183619361A36095037
:10352000015C0A5002580B5003580C5004580D50BF
:1035300005580E5006580F50075810500858D8A07C
:10354000A4EF1AF0A6EF1AF0B7EF1AF00950015ED7
:103550000A50025A0B50035A0C50045A0D50055A87
:103560000E50065A0F50075A1050085A1380D89020
:1035700010320F320E320D320C320B320A32093257
:10358000112E86EF1AF01250D8B4C9EF1AF0CBEF13
:103590001AF0DBEF1AF01A1E191E181E171E161E3F
:1035A000151E141E136C000E14221522162217224B
:1035B000182219221A2213C001F014C002F015C0FB
:1035C00003F016C004F017C005F018C006F019C0CB
:1035D00007F01AC008F01200000E126E08BEF5EFD8
:1035E0001AF0F3EF1AF007EF1BF0081E071E061E75
:1035F000051E041E031E021E016C000E0222032281
:1036000004220522062207220822010E126E10BE95
:103610000EEF1BF00CEF1BF01EEF1BF0101E0F1E29
:103620000E1E0D1E0C1E0B1E0A1E096C000E0A2219
:103630000B220C220D220E220F22102209500A10FA
:103640000B100C100D100E100F101010D8B42BEF23
:103650001BF02DEF1BF075EF1BF0010E116E3BEF11
:103660001BF0D89009360A360B360C360D360E365E
:103670000F361036112A10AE40EF1BF042EF1BF050
:1036800031EF1BF00950015C0A5002580B500358EF
:103690000C5004580D5005580E5006580F5007583E
:1036A00010500858D8A057EF1BF059EF1BF069EFE6
:1036B0001BF00950015E0A50025A0B50035A0C507D
:1036C000045A0D50055A0E50065A0F50075A105002
:1036D000085AD89010320F320E320D320C320B32A3
:1036E0000A320932112E42EF1BF01250D8B47BEF90
:1036F0001BF07DEF1BF08DEF1BF0081E071E061E52
:10370000051E041E031E021E016C000E022203226F
:103710000422052206220722082201C001F002C06D
:1037200002F003C003F004C004F005C005F006C0B9
:1037300006F007C007F008C008F012003A343B3426
:10374000416E4150D8A4A7EF1BF0A9EF1BF0B3EFD7
:103750001BF0000E386E000E396E000E3A6E000E31
:103760003B6E20EF1CF038C03CF039C03DF03AC051
:103770003EF03BC03FF0200EC3EF1BF0D8903F322D
:103780003E323D323C32E82EBEEF1BF03C50406EE4
:103790003A8EFF0E3816FF0E3916FF0E3A16000E3F
:1037A0003B16960E415E41BEDAEF1BF0D8EF1BF0E0
:1037B000F0EF1BF04150800A970FD8B0E2EF1BF0FA
:1037C000E4EF1BF0E6EF1BF0A9EF1BF0D8903B32C3
:1037D0003A3239323832413EE6EF1BF008EF1CF046
:1037E0001F0E4164F6EF1BF0F8EF1BF000EF1CF02A
:1037F000A9EF1BF0D890383639363A363B364106B9
:103800004150D8A406EF1CF008EF1CF0FAEF1BF0B3
:103810004050D8B40EEF1CF010EF1CF018EF1CF065
:103820003B1E3A1E391E386C000E39223A223B22CA
:1038300038C038F039C039F03AC03AF03BC03BF0FC
:10384000120000017AA127EF1CF029EF1CF033EFE2
:103850001CF015C00CF016C00DF013C00EF014C013
:103860000FF0C9EC1DF018BE38EF1CF03AEF1CF059
:1038700040EF1CF017C01CF018C01DF044EF1CF006
:10388000000E1D6E000E1C6E000E1B6E000E1A6EDA
:1038900056EF1CF0000E046E200E036E13C005F0F0
:1038A00014C006F0D7EC1CF01A4A1B2A1C501A5CF4
:1038B0001B50800A196E1D50800A1958D8A063EF5A
:1038C0001CF065EF1CF04AEF1CF000017AB16BEFC1
:1038D0001CF06DEF1CF077EF1CF015C00CF016C05B
:1038E0000DF013C00EF014C00FF0C9EC1DF015C0A0
:1038F00001F016C002F02CEC1EF01C500124136ED7
:103900001D500220146E1200040EBE6E000EBD6E1D
:10391000070EBA6E000EBB6E000EBC6E030EC66EB6
:10392000F80EC26EFB0EC36EC468C5683A017069BA
:10393000FC0E606FF20E506F030E806FF80E406F3A
:10394000000E716F000E816F000E516F000E416FFF
:10395000000E616F000E5A6F000E5B6F000E6A6FF3
:10396000000E6B6F000E7A6F000E7B6F000E826F81
:10397000000E426F000E526F000E626F000E726FEB
:103980004369536963697369070E836F44695469B6
:10399000646974690F0E846F080EC06F100ED16FCA
:1039A000130E0A6F110ED26F0B0EE56F1200055049
:1039B0000610D8B4DEEF1CF0E0EF1CF0E9EF1CF0CD
:1039C00005500610D8A4E7EF1CF0E9EF1CF0EEEF6D
:1039D0001CF003501BEC1FF021EF1DF020EE04F053
:1039E0000550D9260650DA22DE50DE10D8B4FBEF9F
:1039F0001CF0FDEF1CF018EF1DF020EE04F0055058
:103A0000D9260650DA2210EE02F00550E1260650C3
:103A1000E222DE50E65CE650800A0B6EDE50800A41
:103A20000B58D8B016EF1DF018EF1DF021EF1DF068
:103A300020EE02F00550D9260650DA22DE2A000ECA
:103A4000DD221200000E3D01EC6F000EED6F000E46
:103A5000EE6F000EEF6F000EF06F000EF16FB00E04
:103A6000F26F800EF36F000EF46F0C0EF56F000E08
:103A7000F66F000EF76F000EF86F000EF96F000E74
:103A8000FA6F000E016E000E026E000E036E06EC61
:103A90001FF0000E016E000E026E000E036EFFECB2
:103AA0001EF0000E016E000E026E000E036E0DEC95
:103AB0001FF0000E5F6E1200390191AF62EF1DF032
:103AC00064EF1DF06FEF1DF0A1AF69EF1DF06BEF1C
:103AD0001DF06FEF1DF029EC1FF093EF1DF091AD7D
:103AE00074EF1DF076EF1DF081EF1DF0A1AD7BEFBF
:103AF0001DF07DEF1DF081EF1DF02CEC1FF093EF1A
:103B00001DF091A186EF1DF088EF1DF093EF1DF0E1
:103B1000A1A18DEF1DF08FEF1DF093EF1DF020ECB4
:103B20001FF093EF1DF0110054C058F055C059F02C
:103B3000000E0001756F000E746FB2EF1DF052C0E1
:103B400042F053C043F0580E446E000E456E56C00E
:103B500046F057C047F044EC18F04250000174277B
:103B600043507523600063F1F6FF600067F1F7FFD3
:103B7000000EF86E0800F5500009D8A4C2EF1DF041
:103B8000C4EF1DF09FEF1DF074C052F075C053F0EC
:103B90001200000E126E000E116EDAEF1DF010C052
:103BA00003F0046A0EC005F00FC006F0D7EC1CF05D
:103BB000114A122A11500C24D96E12500D20DA6EBF
:103BC000DF50106E1050D8A4E8EF1DF0EAEF1DF0A2
:103BD000CFEF1DF012004A0EF66E3E0EF76E000E8D
:103BE000F86E00EEB8F010EE08F009006F00D7FF95
:103BF000EEFFE550E150F9E100EE60F04C0EEE6AA8
:103C0000E806FDE15F6A080ED56E000ED66E000E66
:103C1000D76E0001B5EF12F014BE19EF1EF014506C
:103C200006E11304D8B017EF1EF019EF1EF027EFCE
:103C30001EF013C015F014C016F0151E161E154AFE
:103C4000162A15C013F016C014F02BEF1EF013C087
:103C500013F014C014F0120001C003F002C004F00D
:103C600034EF1EF0014A022A600007F0D9FF60001D
:103C70000BF0DAFFDF50D8A440EF1EF042EF1EF049
:103C800032EF1EF00350015C016E04500258026EC8
:103C90001200800E3F011E6F420E1F6F000E206F3C
:103CA000000E216F000E236F000E226F000E1D6F9D
:103CB000000E1C6F000E1B6F3901918F918D3F011B
:103CC0001F8F12000001AC51AD11AE11D8B46BEFD3
:103CD0001EF06DEF1EF07AEF1EF002D87AEF1EF0A4
:103CE0000500FA6EAC51FD6EAD51FE6EAE51FF6E29
:103CF000FA5012001200C20E5A6E000E5B6E000ED9
:103D0000526E000E536EC0C054F0C1C055F05A0E32
:103D1000566E000E576E94EC1DF012002FEC1FF043
:103D2000A1EC1EF084EC1CF0EBEC1EF0C2EC1EF0DB
:103D300049EC1EF0B3EC1EF0D0EC1EF022EC1DF0AE
:103D40001200000E3901C06F000EC16F000EC26F6D
:103D5000000EC36F000EC46F000EC56F000EC66F5D
:103D6000000EC76F1200010EAE6E000EAD6E000E9B
:103D7000AF6E000EAB6E000EAA6E3901A495F30E65
:103D8000AC6E1200010EA26E000EA16E000EA36EAC
:103D90009F68000E9E6E3901A791B00EA06E1200B2
:103DA0003901A191D280620E016E3E0E026E000EAC
:103DB000036E14EC1FF0390191811200016E39017C
:103DC000A3A9E5EF1EF0E7EF1EF0DFEF1EF06000A5
:103DD00007F0EAFD1200640E3901D96F000EDB6FA7
:103DE000000EDD6F030EDF6F000EDE6F1200010E9E
:103DF00000017C257C6F000E7D217D6F120001C0CB
:103E0000B2F002C0B3F003C0B4F0120001C0B5F0CC
:103E100002C0B6F003C0B7F0120001C0AFF002C09C
:103E2000B0F003C0B1F0120001C0ACF002C0ADF0C0
:103E300003C0AEF01200026E0250DEEC1EF0120063
:103E40003901A19162EC1EF0120003000000010094
:103E50000F003901A19F12003901A19D1200D29AD1
:043E6000120012003A
:020000040020DA
:10000000FF0FFF0FFF0FFF0FFF0FFF0FFF0FFF0F80
:020000040030CA
:0A000000ECFFF7FF9FFFFFFFFFFF7B
:00000001FF
